:100000000C9434000C9446000C9446000C9446006A
:100010000C9446000C9446000C9446000C94460048
:100020000C9446000C9446000C9446000C94460038
:100030000C9446000C9446000C9446000C94460028
:100040000C9446000C9446000C9446000C94460018
:100050000C9446000C9446000C9446000C94460008
:100060000C9446000C94460011241FBECFEFD8E03C
:10007000DEBFCDBF21E0A0E0B1E001C01D92AE30F7
:10008000B207E1F70E9448000C94A4000C94000011
:1000900083EE8AB987E284B926C0232B09F050C0C9
:1000A00021E030E0309307012093060150930D01C9
:1000B00040930C0180930201909303012D9880914D
:1000C0000C0190910D01BC01660F771F8091060114
:1000D00090910701880F991F880F991F862B909187
:1000E0000201892B85B92D9A2FEF63ED80E3215012
:1000F00060408040E1F700C0000089B182FB222708
:1001000020F930E0309305012093040189B183FB8D
:10011000882780F990E0809308019093090169B1E4
:1001200064FB442740F950E05093010140930001E3
:100130004115510509F0B1CF2115310509F4B2CFB0
:0C0140009A0161E02627AECFF894FFCFB3
:00000001FF
